:020000040000FA
:100000000C9434000C9451000C9451000C94510049
:100010000C9451000C9451000C9451000C9451001C
:100020000C9451000C9453000C9451000C9451000A
:100030000C9451000C9451000C947E000C945100CF
:100040000C9451000C9451000C9451000C945100EC
:100050000C9451000C9451000C9451000C945100DC
:100060000C9451000C94510011241FBECFEFD8E026
:10007000DEBFCDBF11E0A0E0B1E0EAEFF2E002C0E8
:1000800005900D92A231B107D9F721E0A2E1B1E0CC
:1000900001C01D92AE31B207E1F70E94AC000C9492
:1000A0007B010C9400001F920F920FB60F92112447
:1000B0008F939F9380911B0190911C01892BB9F024
:1000C00080911501909116010196909316018093ED
:1000D000150180911501909116010F9744F010922F
:1000E00016011092150110921C0110921B019F9194
:1000F0008F910F900FBE0F901F9018951F920F9227
:100100000FB60F9211242F933F938F939F9380915B
:10011000170190911801019690931801809317018F
:10012000209117013091180180910A0190910B01E3
:100130002817390744F0109218011092170185B161
:1001400091E0892785B99F918F913F912F910F90D1
:100150000FBE0F901F90189584B1876084B98AB143
:10016000837F8AB98BB18C608BB92A9A14BC15BC79
:1001700084B5826084BD85B5856085BD8FEF87BD00
:1001800080916E00826080936E00109280001092C9
:100190008100809180008160809380008091810047
:1001A00088608093810080918000806880938000C7
:1001B0008091810083608093810010928900109269
:1001C00088001092B0001092B1008091B100876059
:1001D0008093B1008091700081608093700078946A
:1001E00021E030E089B151E0982F947082FD50E019
:1001F00089B141E0682F687083FD40E0911139C0FA
:1002000080911D01811135C080911B0190911C01CD
:10021000892B79F58091190190911A01019690939B
:100220001A01809319018091190190911A01039785
:1002300024F010921A0110921901E0911901F09125
:100240001A01EE0FFF1FE45FFE4F808191819093B2
:100250000B0180930A01109218011092170130933C
:100260001C0120931B01109216011092150110928F
:10027000B20050931D01611135C0809114018111AC
:1002800031C080911B0190911C01892B59F58091FF
:100290001201909113010196909313018093120122
:1002A0008091120190911301059724F0109213018F
:1002B00010921201E0911201F0911301EE0FFF1F55
:1002C000E050FF4F80819181909389008093880056
:1002D00030931C0120931B011092160110921501FE
:1002E0001092B200409314018FE39CE90197F1F75B
:1002F00000C0000077CFF894FFCF000040008000DE
:0C030000C000FF007A007A003D001F00E2
:107E0000112484B714BE81FFF0D085E080938100F7
:107E100082E08093C00088E18093C10086E0809377
:107E2000C20080E18093C4008EE0C9D0259A86E02C
:107E300020E33CEF91E0309385002093840096BBD3
:107E4000B09BFECF1D9AA8958150A9F7CC24DD24C4
:107E500088248394B5E0AB2EA1E19A2EF3E0BF2EE7
:107E6000A2D0813461F49FD0082FAFD0023811F036
:107E7000013811F484E001C083E08DD089C08234E0
:107E800011F484E103C0853419F485E0A6D080C0E4
:107E9000853579F488D0E82EFF2485D0082F10E0AE
:107EA000102F00270E291F29000F111F8ED06801E7
:107EB0006FC0863521F484E090D080E0DECF843638
:107EC00009F040C070D06FD0082F6DD080E0C81688
:107ED00080E7D80618F4F601B7BEE895C0E0D1E017
:107EE00062D089930C17E1F7F0E0CF16F0E7DF06D8
:107EF00018F0F601B7BEE89568D007B600FCFDCFD4
:107F0000A601A0E0B1E02C9130E011968C91119780
:107F100090E0982F8827822B932B1296FA010C0160
:107F200087BEE89511244E5F5F4FF1E0A038BF0790
:107F300051F7F601A7BEE89507B600FCFDCF97BE46
:107F4000E89526C08437B1F42ED02DD0F82E2BD052
:107F50003CD0F601EF2C8F010F5F1F4F84911BD097
:107F6000EA94F801C1F70894C11CD11CFA94CF0C13
:107F7000D11C0EC0853739F428D08EE10CD085E9AC
:107F80000AD08FE07ACF813511F488E018D01DD067
:107F900080E101D065CF982F8091C00085FFFCCF94
:107FA0009093C60008958091C00087FFFCCF809118
:107FB000C00084FD01C0A8958091C6000895E0E648
:107FC000F0E098E1908380830895EDDF803219F02E
:107FD00088E0F5DFFFCF84E1DECF1F93182FE3DFCA
:107FE0001150E9F7F2DF1F91089580E0E8DFEE27F6
:047FF000FF270994CA
:027FFE00040479
:00000001FF
