:100000000C9434000C9451000C9451000C94510049
:100010000C9451000C9451000C9451000C9451001C
:100020000C9451000C9453000C9451000C9451000A
:100030000C9451000C9451000C947E000C945100CF
:100040000C9451000C9451000C9451000C945100EC
:100050000C9451000C9451000C9451000C945100DC
:100060000C9451000C94510011241FBECFEFD8E026
:10007000DEBFCDBF11E0A0E0B1E0EAEFF2E002C0E8
:1000800005900D92A231B107D9F721E0A2E1B1E0CC
:1000900001C01D92AE31B207E1F70E94AC000C9492
:1000A0007B010C9400001F920F920FB60F92112447
:1000B0008F939F9380911B0190911C01892BB9F024
:1000C00080911501909116010196909316018093ED
:1000D000150180911501909116010F9744F010922F
:1000E00016011092150110921C0110921B019F9194
:1000F0008F910F900FBE0F901F9018951F920F9227
:100100000FB60F9211242F933F938F939F9380915B
:10011000170190911801019690931801809317018F
:10012000209117013091180180910A0190910B01E3
:100130002817390744F0109218011092170185B161
:1001400091E0892785B99F918F913F912F910F90D1
:100150000FBE0F901F90189584B1876084B98AB143
:10016000837F8AB98BB18C608BB92A9A14BC15BC79
:1001700084B5826084BD85B5856085BD8FEF87BD00
:1001800080916E00826080936E00109280001092C9
:100190008100809180008160809380008091810047
:1001A00088608093810080918000806880938000C7
:1001B0008091810083608093810010928900109269
:1001C00088001092B0001092B1008091B100876059
:1001D0008093B1008091700081608093700078946A
:1001E00021E030E089B151E0982F947082FD50E019
:1001F00089B141E0682F687083FD40E0911139C0FA
:1002000080911D01811135C080911B0190911C01CD
:10021000892B79F58091190190911A01019690939B
:100220001A01809319018091190190911A01039785
:1002300024F010921A0110921901E0911901F09125
:100240001A01EE0FFF1FE45FFE4F808191819093B2
:100250000B0180930A01109218011092170130933C
:100260001C0120931B01109216011092150110928F
:10027000B20050931D01611135C0809114018111AC
:1002800031C080911B0190911C01892B59F58091FF
:100290001201909113010196909313018093120122
:1002A0008091120190911301059724F0109213018F
:1002B00010921201E0911201F0911301EE0FFF1F55
:1002C000E050FF4F80819181909389008093880056
:1002D00030931C0120931B011092160110921501FE
:1002E0001092B200409314018FE39CE90197F1F75B
:0A02F00000C0000077CFF894FFCFA4
:1002FA00000040008000C000FF007A007A003D0044
:02030A001F00D2
:00000001FF
