:020000040000FA
:100000000C9462000C948A000C948A000C948A0070
:100010000C948A000C948A000C948A000C948A0038
:100020000C948A000C948A000C948A000C948A0028
:100030000C948A000C948A000C948A000C948A0018
:100040000C9404040C948A000C9474040C944E04D4
:100050000C948A000C948A000C948A000C948A00F8
:100060000C948A000C948A000000000024002700F1
:100070002A0000000000250028002B0000000000DE
:1000800023002600290004040404040404040202DA
:100090000202020203030303030301020408102007
:1000A0004080010204081020010204081020000012
:1000B0000008000201000003040700000000000027
:1000C0000000800711241FBECFEFD8E0DEBFCDBFF8
:1000D00011E0A0E0B1E0EEEFFFE002C005900D926C
:1000E000A63DB107D9F722E0A6EDB1E001C01D920F
:1000F000A839B207E1F710E0C2E6D0E004C02197CA
:10010000FE010E94F707C136D107C9F70E94A60475
:100110000C94FD070C940000833081F028F48130AA
:1001200099F08230A9F008958730A9F08830C9F09D
:100130008430B1F4809180008F7D03C08091800075
:100140008F7780938000089584B58F7784BD08955C
:1001500084B58F7DFBCF8091B0008F778093B00006
:1001600008958091B0008F7DF9CFCF93DF93282F32
:1001700030E0F901E255FF4F8491F901E656FF4F57
:10018000D491F901EA57FF4FC491CC23A1F081111A
:100190000E948C00EC2FF0E0EE0FFF1FE458FF4FA1
:1001A000A591B491EC91ED2381E090E009F480E019
:1001B000DF91CF91089580E090E0FACF1F93CF9325
:1001C000DF93282F30E0F901E255FF4F8491F901C8
:1001D000E656FF4FD491F901EA57FF4FC491CC2363
:1001E000A9F0162F81110E948C00EC2FF0E0EE0F89
:1001F000FF1FEE58FF4FA591B4918FB7F894EC9183
:10020000111108C0D095DE23DC938FBFDF91CF9111
:100210001F910895DE2BF8CFCF93DF9390E0FC0180
:10022000E656FF4F24918A579F4FFC018491882303
:10023000D1F090E0880F991FFC01E859FF4FA5917C
:10024000B491FC01EE58FF4FC591D491623071F426
:100250009FB7F8943C91822F809583238C93E881FB
:100260002E2B28839FBFDF91CF9108958FB7F894ED
:10027000EC912E2B2C938FBFF6CF3FB7F894809143
:10028000F7019091F801A091F901B091FA0126B51A
:10029000A89B05C02F3F19F00196A11DB11D3FBFBE
:1002A000BA2FA92F982F8827BC01CD01620F711D8D
:1002B000811D911D42E0660F771F881F991F4A9587
:1002C000D1F708958F929F92AF92BF92CF92DF9213
:1002D000EF92FF924B015C010E943D016B017C019A
:1002E0000E943D016C197D098E099F09683E73408B
:1002F00081059105A8F321E0821A9108A108B108AF
:1003000088EEC80E83E0D81EE11CF11C8114910414
:10031000A104B10429F7FF90EF90DF90CF90BF9038
:10032000AF909F908F9008952FB7F8946091F3014C
:100330007091F4018091F5019091F6012FBF08951D
:10034000AF92BF92CF92DF92EF92FF920F931F93E3
:10035000CF93DF936C017B018B01040F151FEB0121
:100360005E01AE18BF08C017D10759F06991D601D8
:10037000ED91FC910190F081E02DC6010995892B4A
:1003800079F7C501DF91CF911F910F91FF90EF9009
:10039000DF90CF90BF90AF900895FC01538D448DB6
:1003A000252F30E0842F90E0821B930B541710F020
:1003B000CF96089501970895FC01918D828D98172D
:1003C00061F0A28DAE0FBF2FB11D5D968C91928D05
:1003D0009F5F9F73928F90E008958FEF9FEF089536
:1003E000FC01918D828D981731F0828DE80FF11DFF
:1003F000858D90E008958FEF9FEF0895FC01918D1A
:10040000228D892F90E0805C9F4F821B91098F7312
:10041000992708958BEF91E00E94FE0121E0892B3E
:1004200009F420E0822F089580E090E0892B29F0E4
:100430000E940A0281110C9400000895FC01A48D11
:10044000A80FB92FB11DA35ABF4F2C91848D90E0F6
:1004500001968F739927848FA689B7892C93A089D9
:10046000B1898C91837080648C93938D848D981363
:1004700006C00288F389E02D80818F7D80830895F6
:10048000EF92FF920F931F93CF93DF93EC0181E0E4
:10049000888F9B8D8C8D98131AC0E889F98980818B
:1004A00085FF15C09FB7F894EE89FF896083E889BE
:1004B000F98980818370806480839FBF81E090E0B0
:1004C000DF91CF911F910F91FF90EF900895F62E3D
:1004D0000B8D10E00F5F1F4F0F731127E02E8C8DD7
:1004E0008E110CC00FB607FCFACFE889F98980811C
:1004F00085FFF5CFCE010E941E02F1CFEB8DEC0FF0
:10050000FD2FF11DE35AFF4FF0829FB7F8940B8F38
:10051000EA89FB8980818062CFCFCF93DF93EC01A2
:10052000888D8823B9F0AA89BB89E889F9898C91DB
:1005300085FD03C0808186FD0DC00FB607FCF7CF97
:100540008C9185FFF2CF808185FFEDCFCE010E9497
:100550001E02E9CFDF91CF910895CF93815F9E4F27
:10056000FC01C0816C2F617089E00E94DE006C2F5D
:1005700062708AE00E94DE006C2F64708BE00E9443
:10058000DE006C2F68708CE00E94DE006C2F6071C2
:100590008DE00E94DE006C2F60728EE00E94DE0013
:1005A0006C2F60748FE0CF910C94DE008091F1018C
:1005B000882321F085E090E00C94AD028091EA015F
:1005C0009091EB0186309105B8F3089560E080E1E9
:1005D0000E94DE0060E081E10E94DE0060E082E1D6
:1005E0000E94DE0060E083E10C94DE00CF93C82F10
:1005F000682F617080E10E94DE006C2F627081E1E3
:100600000E94DE006C2F647082E10E94DE006C2F7D
:10061000687083E1CF910C94DE008091EA019091A3
:10062000EB018230910581F118F4019739F00895BA
:100630008330910519F0049739F108952091020152
:100640008091D6019091D701222381F0FC01E95FCE
:10065000FE4F2081019668E070E00E94AD07909304
:10066000D7018093D601822F0C94F602079668E09A
:1006700070E00E94AD079093D7018093D601895F07
:100680009E4FFC012081EFCF209102018091D60185
:100690009091D701222341F0FC01ED5FFE4F2081B4
:1006A000019664E070E0D9CF039664E070E00E94A8
:1006B000AD079093D7018093D6018D5F9E4FE1CF18
:1006C000FC0101900020E9F73197AF01481B590B5D
:1006D000BC018BEF91E00C94A001CF93DF93D0E0AD
:1006E000C0E0009719F00E946003EC0187E291E0FE
:1006F0000E9460038C0F9D1FDF91CF9108958F9210
:100700009F92AF92BF92CF92DF92EF92FF920F93A0
:100710001F93CF93DF93CDB7DEB7A1970FB6F894B1
:10072000DEBF0FBECDBF6C01990FEE08FF08F7FECC
:1007300047C06DE28BEF91E00E9440028C012227BE
:100740003327A9012C193D094E095F0919A2CE01D1
:1007500081967C019AE0892E912CA12CB12CCA01A2
:10076000B901A50194010E94C107605DF701629380
:100770007F01211531054105510589F790E080E0A1
:10078000309719F0CF010E946003080F191F87E20C
:1007900091E00E946003800F911FA1960FB6F8941C
:1007A000DEBF0FBECDBFDF91CF911F910F91FF90A4
:1007B000EF90DF90CF90BF90AF909F908F90089573
:1007C000A701960119A28E010F5D1F4F8AE0C82E66
:1007D000D12CE12CF12CCA01B901A70196010E948C
:1007E000C107605DF80162938F0121153105410554
:1007F000510589F7309729F0CF010E9460038C01E1
:10080000C6CF10E000E0C3CF1F920F920FB60F9239
:1008100011242F933F938F939F93AF93BF93809116
:10082000F3019091F401A091F501B091F60130919E
:10083000F20123E0230F2D3758F50196A11DB11DBC
:100840002093F2018093F3019093F401A093F501BA
:10085000B093F6018091F7019091F801A091F90110
:10086000B091FA010196A11DB11D8093F7019093FB
:10087000F801A093F901B093FA01BF91AF919F9154
:100880008F913F912F910F900FBE0F901F90189551
:1008900026E8230F0296A11DB11DD2CF1F920F9201
:1008A0000FB60F9211242F933F934F935F936F9343
:1008B0007F938F939F93AF93BF93EF93FF938BEFB0
:1008C00091E00E941E02FF91EF91BF91AF919F9125
:1008D0008F917F916F915F914F913F912F910F90E9
:1008E0000FBE0F901F9018951F920F920FB60F9288
:1008F00011242F938F939F93EF93FF93E0910B021B
:10090000F0910C028081E0911102F091120282FDBF
:100910001BC09081809114028F5F8F73209115020C
:10092000821741F0E0911402F0E0E550FE4F958F00
:1009300080931402FF91EF919F918F912F910F90CF
:100940000FBE0F901F9018958081F4CF789484B5D6
:10095000826084BD84B5816084BD85B5826085BDBB
:1009600085B5816085BD80916E00816080936E0049
:10097000109281008091810082608093810080913B
:1009800081008160809381008091800081608093EC
:1009900080008091B10084608093B1008091B000AC
:1009A00081608093B00080917A00846080937A00A7
:1009B00080917A00826080937A0080917A008160D1
:1009C00080937A0080917A00806880937A001092F8
:1009D000C10062E082E00E940C0162E083E00E94BC
:1009E0000C0162E084E00E940C0162E085E00E945C
:1009F0000C0162E086E00E940C0161E087E00E9449
:100A00000C0161E088E00E940C0161E089E00E9435
:100A10000C0161E08AE00E940C0161E08BE00E9421
:100A20000C0161E08CE00E940C0161E08DE00E940D
:100A30000C0161E08EE00E940C0161E08FE00E94F9
:100A40000C0161E080E10E940C0161E081E10E9403
:100A50000C0161E082E10E940C0161E083E10E94EF
:100A60000C01E0910B02F0910C0282E08083E09196
:100A70000702F09108021082E0910902F0910A0247
:100A80008FEC808310921302E0910F02F09110021C
:100A900086E08083E0910D02F0910E0280818061FA
:100AA0008083E0910D02F0910E0280818860808346
:100AB000E0910D02F0910E02808180688083E091C8
:100AC0000D02F0910E0280818F7D80838AE491E097
:100AD0000E946D030E94D602BB24B39405E010E08F
:100AE000C0E0D0E0AA24A3940E9494016B017C0191
:100AF00083E00E94B5002091DC01892BD1F5211102
:100B00000CC00E9494016093D8017093D901809326
:100B1000DA019093DB01A092DC010E9494014090E5
:100B2000D8015090D9016090DA017090DB0164190E
:100B3000750986099709613D774081059105E0F0C7
:100B40008091F10181115EC0A092F1011092EC013F
:100B50000E9494010E94E60283E791E00E946D03E7
:100B60001092DC0164EF71E080E090E00E9462018D
:100B700003C021111092DC018091F101882309F456
:100B800067C00E9494012B013C018091DE0190918D
:100B9000DF01A091E001B091E101A3019201281BC6
:100BA000390B4A0B5B0BDA01C901843F9140A10567
:100BB000B10598F0F090DD01FF2069F185E090E04B
:100BC0000E94AD02FB24F092DD014092DE015092C2
:100BD000DF016092E0017092E10160E087E00E9435
:100BE000DE0060E088E00E94DE000E94E6022097BE
:100BF00009F47ACF0E940A02882309F475CF0E9473
:100C0000000072CF1092F1011092EB011092EA01F4
:100C10008CE891E0A3CF60E089E00E94DE0060E014
:100C20008AE00E94DE0060E08BE00E94DE0060E06F
:100C30008CE00E94DE0060E08DE00E94DE0060E05B
:100C40008EE00E94DE0060E08FE00E94DE00BACFFE
:100C50008091ED019091EE01A091EF01B091F00132
:100C6000A7019601281B390B4A0B5B0BDA01C9015E
:100C7000C397A105B10508F4DEC082E00E94B5006B
:100C8000892BB1F58091F10181112CC08091EA018D
:100C90009091EB010196B8010E94AD079093EB0192
:100CA0008093EA0183EA91E00E9460038091EA0167
:100CB0009091EB010E947F038091EC01882391F0D9
:100CC0008091EA019091EB01019731F08091EA0166
:100CD0009091EB01029731F48091F101811102C0F2
:100CE0000E940D036CE271E080E090E00E946201DE
:100CF00083E00E94B500892B31F58091F1018111CB
:100D000022C08091F101811118C08091EC018B25E6
:100D10008093EC0185EB91E00E9460038091EC01EF
:100D2000882309F4E7C08AE291E00E946D03809174
:100D3000EC01811102C00E94E6026CE271E080E0E9
:100D400090E00E94620184E00E94B500892BE1F4EA
:100D50008091F101811112C0809102018B25809355
:100D600002018CEB91E00E946003809102018823D4
:100D700009F4C3C08AE391E00E946D036CE271E064
:100D800080E090E00E94620185E00E94B500892B1E
:100D900011F58091F101811118C0809100019091AD
:100DA00001018436910514F484E690E0C297909393
:100DB00001018093000188EC91E00E946003809122
:100DC0000001909101010E947F0368EC70E080E0D7
:100DD00090E00E94620186E00E94B500892B19F51F
:100DE0008091F101811119C0809100019091010160
:100DF0008F3937E0930714F08EE997E0C29690930D
:100E000001018093000188EC91E00E9460038091D1
:100E10000001909101010E947F0368EC70E080E086
:100E200090E00E946201C092ED01D092EE01E0924A
:100E3000EF01F092F0016091EC0187E00E94DE008A
:100E40006091020188E00E94DE008091EC0188231D
:100E500081F18091EA019091EB010397029748F5A7
:100E60008091E6019091E701A091E801B091E9013C
:100E7000B701A601481B590B6A0B7B0B809100013F
:100E800090910101092E000CAA0BBB0B48175907C2
:100E90006A077B0770F08091F101811102C00E9406
:100EA0000D03C092E601D092E701E092E801F092D2
:100EB000E9018091E2019091E301A091E401B091F8
:100EC000E501A7019601281B390B4A0B5B0BDA01E0
:100ED000C901883C9105A105B10508F488CE0E949E
:100EE000D602C092E201D092E301E092E401F092D6
:100EF000E5017DCE82E391E018CF82E491E03CCF22
:100F0000EBEFF1E01382128288EE93E0A0E0B0E014
:100F100084839583A683B78389E191E0918380835D
:100F200085EC90E09587848784EC90E097878687AE
:100F300080EC90E0918B808B81EC90E0938B828BA6
:100F400082EC90E0958B848B86EC90E0978B868B7F
:100F5000118E128E138E148E089597FB072E16F4A1
:100F6000009407D077FD09D00E94E30707FC05D065
:100F70003EF4909581959F4F0895709561957F4FB0
:100F80000895A1E21A2EAA1BBB1BFD010DC0AA1FCA
:100F9000BB1FEE1FFF1FA217B307E407F50720F0E2
:100FA000A21BB30BE40BF50B661F771F881F991F5D
:100FB0001A9469F760957095809590959B01AC01A6
:100FC000BD01CF010895AA1BBB1B51E107C0AA1F99
:100FD000BB1FA617B70710F0A61BB70B881F991FDA
:100FE0005A95A9F780959095BC01CD010895EE0F13
:100FF000FF1F0590F491E02D0994F894FFCFF401C0
:10100000010903060C09030206040C08093F065BEC
:101010004F6679000000004002A001CD018D02FE64
:1010200001DC01F0010D0A005354415254454400C3
:1010300053544F5050454400464F5257415244007C
:101040005245564552534500537465707065722081
:101050004D6F746F7220436F6E74726F6C20537992
:101060007374656D20496E697469616C697A656431
:1010700000454D455247454E43592053544F50204B
:1010800041435449564154454400454D4552474516
:101090004E43592053544F5020434C4541524544F0
:1010A000004D6F6465206368616E67656420746FCE
:1010B0003A20004D6F746F7220004469726563744A
:1010C000696F6E3A2000537465702064656C6179B5
:0410D0003A200000C2
:107E0000112484B714BE81FFF0D085E080938100F7
:107E100082E08093C00088E18093C10086E0809377
:107E2000C20080E18093C4008EE0C9D0259A86E02C
:107E300020E33CEF91E0309385002093840096BBD3
:107E4000B09BFECF1D9AA8958150A9F7CC24DD24C4
:107E500088248394B5E0AB2EA1E19A2EF3E0BF2EE7
:107E6000A2D0813461F49FD0082FAFD0023811F036
:107E7000013811F484E001C083E08DD089C08234E0
:107E800011F484E103C0853419F485E0A6D080C0E4
:107E9000853579F488D0E82EFF2485D0082F10E0AE
:107EA000102F00270E291F29000F111F8ED06801E7
:107EB0006FC0863521F484E090D080E0DECF843638
:107EC00009F040C070D06FD0082F6DD080E0C81688
:107ED00080E7D80618F4F601B7BEE895C0E0D1E017
:107EE00062D089930C17E1F7F0E0CF16F0E7DF06D8
:107EF00018F0F601B7BEE89568D007B600FCFDCFD4
:107F0000A601A0E0B1E02C9130E011968C91119780
:107F100090E0982F8827822B932B1296FA010C0160
:107F200087BEE89511244E5F5F4FF1E0A038BF0790
:107F300051F7F601A7BEE89507B600FCFDCF97BE46
:107F4000E89526C08437B1F42ED02DD0F82E2BD052
:107F50003CD0F601EF2C8F010F5F1F4F84911BD097
:107F6000EA94F801C1F70894C11CD11CFA94CF0C13
:107F7000D11C0EC0853739F428D08EE10CD085E9AC
:107F80000AD08FE07ACF813511F488E018D01DD067
:107F900080E101D065CF982F8091C00085FFFCCF94
:107FA0009093C60008958091C00087FFFCCF809118
:107FB000C00084FD01C0A8958091C6000895E0E648
:107FC000F0E098E1908380830895EDDF803219F02E
:107FD00088E0F5DFFFCF84E1DECF1F93182FE3DFCA
:107FE0001150E9F7F2DF1F91089580E0E8DFEE27F6
:047FF000FF270994CA
:027FFE00040479
:00000001FF
